:10000000886900202D02000089020000890200009A
:10001000890200008902000089020000000000003F
:10002000000000000000000000000000B90B00000C
:100030008902000000000000890C0000C50C0000CF
:100040008902000089020000890200008902000084
:100050008902000089020000890200008902000074
:100060008902000089020000890200008902000064
:100070008902000089020000890200008902000054
:100080008902000089020000890200008902000044
:100090008902000089020000890200008902000034
:1000A0008902000089020000890200008902000024
:1000B0008902000089020000890200008902000014
:1000C0008902000089020000890200008902000004
:1000D00089020000890200008902000089020000F4
:1000E00089020000890200008902000089020000E4
:1000F00089020000890200008902000089020000D4
:1001000080B483B000AF254B244A126842F0080245
:100110001A60224B214A126842F020021A601F4BDB
:100120001E4A126842F040021A601C4B1B687B603A
:100130001B4B01221A601B4B40221A601A4B1A4AB1
:10014000126842F001021A60174B174A126842F017
:1001500002021A60154B40221A60154B03221A60E6
:10016000144B03221A60144B02221A60134B134AD9
:10017000126842F040021A60114B114A126842F0B4
:1001800001021A600E4B0E4A126842F002021A6017
:100190000C37BD465DF8047B704700BF08E10F4097
:1001A0000054024000740040006402401C7500408E
:1001B0001C5502401C65024010550240FC73004073
:1001C000FC63024080B582B000AF7860044B044A03
:1001D000126882F001021A60322000F04DF9F5E752
:1001E000FC53024080B582B000AF7860054B054AF1
:1001F000126882F001021A604FF4FA6000F03CF9D4
:10020000F4E700BFFC63024080B582B000AF7860C5
:10021000054B054A126882F002021A6040F6B830B7
:1002200000F02AF9F4E700BFFC63024080B582B019
:1002300000AF104B7B60104B3B6007E03B681A1D22
:100240003A607A68111D796012681A603A680B4B3F
:100250009A42F3D30A480B494FF000028842B8BFD4
:1002600040F8042BFFF6FAAF00F01AF80837BD4645
:1002700080BD00BFD8100000000000200400002056
:10028000080000208865002080B400AFFEE700BFB2
:1002900080B500AF00F040FDFFF732FF80BD00BF2A
:1002A00080B586B004AF01237B60FFF7F1FF012327
:1002B0000093002301930023029300230393164825
:1002C00016494FF48062002300F032F801230093B6
:1002D0000023019300230293002303931048114944
:1002E0004FF48062002300F023F8012300930023E1
:1002F000019300230293002303930B480B494FF40F
:100300008062002300F014F800F0FCF80123184686
:100310000837BD4680BD00BFC5010000AC1000001D
:10032000E5010000B810000009020000C410000040
:1003300080B58AB002AFF860B9603B601346FB80BD
:10034000FB881846396B00F017FBB861BB69002BBE
:1003500066D0BB691A6BFB8803F18043013B9B00AD
:1003600013447B617B6923F007037B61FB88009367
:10037000B869B968BA6A7B6B00F048FA7869F968BD
:100380003A6800F0EFFB0246BB691A6000F054FCCB
:10039000324B1B685A1C314B1A60304B1B68012BC7
:1003A00005D12F4BBA691A6000F066FA0CE02D4BAC
:1003B0001B68002B08D12A4B1B68DA6ABB6A9A4279
:1003C00002D8274BBA691A60BB69DA6A264B1B68E8
:1003D0009A4203D9BB69DA6A234B1A60234B1B6824
:1003E0005A1C224B1A60BB69DA6A214B1B689A427D
:1003F00003D9BB69DA6A1E4B1A60BB69DA6A134615
:100400009B0013449B001B4A1A44BB6904331046EB
:10041000194600F01FFB0123FB6100F01FFC02E006
:100420004FF0FF33FB61FB69012B11D1FB6A002BFD
:1004300002D0FB6ABA691A600A4B1B68002B07D00E
:10044000074B1B68DA6ABB6A9A4201D200F0E8FBEC
:10045000FB6918462037BD4680BD00BF440100201F
:1004600008000020540100204C01002068010020F9
:10047000500100200C00002080B584B000AF7860EF
:100480000023FB607B68002B2BD000F069F8194B30
:100490001A687B681344BB60174B1B68043318460B
:1004A00000F038FB144B1B68BA685A60114B1B688C
:1004B000BA689A4209D2114B1A680F4B1B68043371
:1004C0001046194600F0EEFA08E00D4B1A680A4B88
:1004D0001B6804331046194600F0E4FA00F04EF8A9
:1004E000F860FB68002B01D100F09AFB1037BD4685
:1004F00080BD00BF4801002008000020000100204E
:10050000FC00002080B586B004AF002300930023D8
:10051000019300230293002303930D480D494FF4E8
:1005200080620023FFF704FF78607B68012B0BD10A
:100530004FF0BF0080F31188074B01221A60074B70
:1005400000221A6000F050FB0837BD4680BD00BF96
:10055000ED070000D01000005401002048010020E9
:1005600080B400AF044B1B685A1C034B1A60BD4695
:100570005DF8047B704700BF5801002090B583B040
:1005800000AF00237B6000F057FB344B1B685A1E02
:10059000324B1A60314B1B68002B57D1304B1B6814
:1005A000002B53D000233B6024E004F118031846CD
:1005B00000F0B0FA231D184600F0ACFAE26A294BAD
:1005C0001B689A4202D9E26A264B1A60E26A134615
:1005D0009B0013449B00244A1A44231D10461946CD
:1005E00000F038FAE26A214B1B68DB6A9A4201D3B9
:1005F00001233B601E4B1B68002B03D01C4BDB68A8
:10060000DB6800E000231C46002CCED1194B1B6890
:10061000002B0DD006E000F031F8164B1B685A1E77
:10062000144B1A60134B1B68002BF4D101233B6061
:100630003B68012B03D0104B1B68012B06D1012313
:100640007B600D4B00221A6000F0EAFA00F006FB16
:100650007B6818460C37BD4690BD00BF580100208E
:1006600044010020500100200C0000200800002060
:10067000040100205C0100206001002090B583B0DF
:1006800000AF2D4B1B68002B4ED12C4B1B685A1C06
:100690002A4B1A60294B1B68002B0FD1284B1B6873
:1006A0007B60284B1A68264B1A60264B7A681A60C2
:1006B000254B1B685A1C244B1A6026E025E0626813
:1006C0001E4B1B689A4200D92DE0231D184600F0EE
:1006D00021FAA36A002B04D004F11803184600F095
:1006E00019FAE26A194B1B689A4202D9E26A174B5F
:1006F0001A60E26A13469B0013449B00144A1A4492
:10070000231D1046194600F0A5F90D4B1B681B6808
:10071000002B04D00A4B1B68DB68DB6800E0002379
:100720001C46002CCBD104E00A4B1B685A1C094B19
:100730001A600C37BD4690BD5801002048010020CA
:10074000FC00002000010020640100205001002076
:100750000C0000205C01002080B483B000AF1E4B71
:100760001B68002B03D01D4B01221A602EE004E011
:100770001B4B1B685A1E1A4B1A60194B1A681949F1
:1007800013469B0013449B000B441B68002BEFD0C7
:10079000134B1A6813469B0013449B00114A1344E1
:1007A0007B607B685B685A687B685A607B685A68C4
:1007B0007B6808339A4204D17B685B685A687B681F
:1007C0005A607B685B68DA68074B1A600C37BD4675
:1007D0005DF8047B704700BF5801002060010020D5
:1007E000500100200C0000200800002080B582B0DD
:1007F00000AF786000F07EF8034B1B68012B02D934
:1008000000F00EFAF6E7F5E70C00002080B584B0A2
:1008100000AFF860B9607A603B60FB68343318461B
:10082000B968102200F010FCFB68002283F8432016
:100830007B68092B01D909237B60FB687A68DA623F
:10084000FB687A685A64FB680433184600F0F6F8CF
:10085000FB681833184600F0F1F8FB68FA681A6173
:100860007B68C3F10A02FB689A61FB68FA685A6206
:100870001037BD4680BD00BF80B582B000AF0023F9
:100880007B600CE07A6813469B0013449B00114A7E
:100890001344184600F0B2F87B6801337B607B6834
:1008A000092BEFD90C4800F0A9F80C4800F0A6F885
:1008B0000B4800F0A3F80B4800F0A0F80A4800F03D
:1008C0009DF80A4B044A1A60094B044A1A6008371B
:1008D000BD4680BD0C000020D4000020E8000020B0
:1008E000040100201801002030010020FC0000203D
:1008F0000001002080B582B000AF1B4B1B68002BAD
:100900002ED0FFF72DFE194B1B68002B14BF0023C0
:100910000123DBB27B60FFF731FE7B68002B1FD128
:1009200000F08AF9114B1B68002B03D0104B5B6859
:10093000DB6800E000233B603B680433184600F0AE
:10094000E9F80C4B1B685A1E0A4B1A60064B1B68D1
:100950005A1E054B1A6000F081F9386800F03EF825
:100960000837BD4680BD00BF2C01002018010020C3
:10097000200100204401002080B584B000AF034670
:100980003960FB80482000F039FAF860FB68002BE2
:100990001FD03B68002B06D1FB889B00184600F057
:1009A0002DFA034600E03B68FA681363FB681B6B93
:1009B000002B05D1F86800F0C5FA0023FB6008E0C1
:1009C000FB681A6BFB889B001046A5211A4600F0B5
:1009D000F1FAFB6818461037BD4680BD80B582B07D
:1009E00000AF78607B681B6B184600F0ABFA786844
:1009F00000F0A8FA0837BD4680BD00BF80B483B0C0
:100A000000AF78607B6803F108027B685A607B68FE
:100A10004FF0FF329A607B6803F108027B68DA606E
:100A20007B6803F108027B681A617B6800221A6008
:100A30000C37BD465DF8047B704700BF80B483B0BF
:100A400000AF78607B6800221A610C37BD465DF804
:100A5000047B704780B485B000AF786039607B68F4
:100A60005B68FB60FB685A683B685A607B685A6841
:100A70003B689A60FB685B683A689A60FB683A6812
:100A80005A607B683A685A603B687A681A617B688A
:100A90001B685A1C7B681A601437BD465DF8047BDE
:100AA000704700BF80B485B000AF786039603B68A4
:100AB0001B68BB60BB68B3F1FF3F03D17B681B6958
:100AC000FB600CE07B680833FB6002E0FB685B685E
:100AD000FB60FB685B681A68BB689A42F6D9FB68E2
:100AE0005A683B685A603B685B683A689A603B6842
:100AF000FA689A60FB683A685A603B687A681A61DB
:100B00007B681B685A1C7B681A601437BD465DF809
:100B1000047B704780B485B000AF78607B685B6809
:100B20007A6892689A607B689B687A6852685A60B3
:100B30007B681B69FB60FB685A687B689A4203D13B
:100B40007B689A68FB685A607B6800221A61FB68C0
:100B50001B685A1EFB681A601437BD465DF8047B9B
:100B6000704700BF80B485B000AFF860B9607A60AC
:100B7000FB68043BFB60FB684FF080721A60FB6807
:100B8000043BFB60BA68FB681A60FB68043BFB60CF
:100B9000FB6800221A60FB68143BFB607A68FB6804
:100BA0001A60FB68203BFB60FB6818461437BD46A3
:100BB0005DF8047B704700BF064B19680868B0E811
:100BC000F00F80F309884FF0000080F311884EF099
:100BD0000D0E70470800002002480068006880F38E
:100BE000088800DF08ED00E080B500AF0A4B0A4A34
:100BF000126842F47F021A60074B074A126842F0FB
:100C00007F421A6000F076F8044B00221A60FFF76A
:100C1000E3FF0023184680BD20ED00E00000002027
:100C200080B400AF034B4FF080521A60BD465DF8B0
:100C3000047B704704ED00E080B400AF4FF0BF00CC
:100C400080F31188044B1B685A1C034B1A60BD4685
:100C50005DF8047B704700BF0000002080B400AF47
:100C6000084B1B685A1E074B1A60064B1B68002B6B
:100C700003D14FF0000080F31188BD465DF8047B7E
:100C8000704700BF00000020EFF309800C4B1A688A
:100C900020E9F00F10602DE908404FF0BF0080F30D
:100CA0001188FFF759FD4FF0000080F31188BDE86F
:100CB000084019680868B0E8F00F80F309887047A9
:100CC0000800002080B582B000AF094B4FF0805281
:100CD0001A6000237B604FF0BF0080F31188FFF79C
:100CE000CDFC4FF0000080F311880837BD4680BD71
:100CF00004ED00E080B400AF054B4CF24F321A60B7
:100D0000044B07221A60BD465DF8047B704700BFA4
:100D100014E000E010E000E080B483B000AF344B9A
:100D2000334A126842F400621A60314B304A12684A
:100D300022F480021A602E4B2D4A126842F0010202
:100D40001A602C4B6FF040021A60294B284A126837
:100D500022F470721A60264B254A126842F46072BF
:100D60001A60234B224A126822F030021A60204B8C
:100D70001F4A12681A601E4B1D4A126822F4005264
:100D80001A601D4B7B6002E07B68013B7B607B68E7
:100D9000002BF9D1164B164A126822F0F0621A6045
:100DA000134B134A126842F080721A60104B104ABB
:100DB000126842F480021A6000BF0E4B1B6803F0F9
:100DC0004003002BF9D00A4B094A126822F4006252
:100DD0001A60094B7B6002E07B68013B7B607B68AB
:100DE000002BF9D10C37BD465DF8047B704700BF7E
:100DF00060E00F4050E00F40400D030080B58AB026
:100E000000AF78600023FB61FFF7AAFB484B1B682B
:100E1000002B1CD1474B484A1A60464B00225A60AF
:100E2000464B4FF4C8425A60444B00221A60424B72
:100E30007B617B694FF4C8425A607B693F4A1A6004
:100E40003F4B4FF4C8421A60394B01221A607B684D
:100E5000002B0DD010237A6813447B607B6803F06D
:100E60000703002B04D07B6823F0070308337B6063
:100E70007B68002B55D07B68B3F5C84F51D22D4B02
:100E80003B622C4B1B687B6204E07B6A3B627B6AA3
:100E90001B687B627B6A5A687B689A4203D27B6AD2
:100EA0001B68002BF1D17A6A244B9A4239D03B6AF5
:100EB0001A6810231344FB617B6A1A683B6A1A6044
:100EC0007B6A5A687B68D21A10235B009A4222D947
:100ED0007A6A7B6813443B617B6A5A687B68D21AE2
:100EE0003B695A607B6A7A685A603B695B68FB6061
:100EF000104BBB6102E0BB691B68BB61BB691B682F
:100F00005A68FB689A42F6D3BB691A683B691A6053
:100F1000BB693A691A600A4B1A687B68D21A084B97
:100F20001A60FFF72BFBFB6918462837BD4680BDCA
:100F30008465002070650020700100207865002025
:100F40008065002080B586B000AF78607B683B612B
:100F50007B68002B27D010235B423A6913443B6126
:100F60003B69FB60FFF7FCFAFB685B68BB600F4BFB
:100F70007B6102E07B691B687B617B691B685A6847
:100F8000BB689A42F6D37B691A68FB681A607B6972
:100F9000FA681A60FB685A68054B1B681A44044BD0
:100FA0001A60FFF7EBFA1837BD4680BD7065002068
:100FB00080650020F0B4840743D0541E002A3ED040
:100FC000CDB2034603E0621E002C38D0144603F86D
:100FD000015B9A07F7D1032C2AD9CDB245EA052542
:100FE0000F2C45EA054515D9A4F110073F0903F177
:100FF000100606EB07161A46156055609560D56019
:101000001032B242F8D104F00F040137032C03EB85
:1010100007130DD91E462246043A032A46F8045BFC
:10102000FAD8221F22F003020432134404F003040E
:101030002CB1C9B21C4403F8011BA342FBD1F0BC84
:10104000704714460346C6E740EA01039B0770B4A5
:101050002AD1032A28D90C460346214654F8045BBA
:10106000A5F1013626EA050616F0803F05D1043ABF
:10107000032A43F8045B2146EFD89AB10C78013A71
:101080001C7001333CB16AB111F8014F013A03F809
:10109000014B002CF7D12AB11A44002103F8011B9F
:1010A0009342FBD170BC70470346E6E7537461740A
:1010B00075735F6C6564000059656C6C6F775F6C6D
:1010C00065640000477265656E5F6C6564000000D2
:0810D00049444C4500000000FA
:0410D800AAAAAAAA6C
:00000001FF
