:1000000018040020010400005D0400005D040000ED
:100010005D0400005D0400005D04000000000000BD
:100020000000000000000000000000005D0400006F
:100030005D040000000000005D040000CD0500002C
:100040005D0400005D0400005D0400005D0400002C
:100050005D0400005D0400005D0400005D0400001C
:100060005D0400005D0400005D0400005D0400000C
:100070005D0400005D0400005D0400005D040000FC
:100080005D0400005D0400005D0400005D040000EC
:100090005D0400005D0400005D0400005D040000DC
:1000A0005D0400005D0400005D0400005D040000CC
:1000B0005D0400005D0400005D0400005D040000BC
:1000C0005D0400005D0400005D0400005D040000AC
:1000D0005D0400005D0400005D0400005D0400009C
:1000E0005D0400005D0400005D0400005D0400008C
:1000F0005D0400005D0400005D0400005D0400007C
:1001000080B483B000AF0023FB712C4B2B4A1268E4
:1001100042F001021A600023FB7102E0FB79013317
:10012000FB71FB79632BF9D9254B254A126842F004
:100130003C021A60234B234A126822F03C021A60E8
:10014000214B214A126842F03C021A601F4B1F4AA1
:10015000126842F03C021A601D4B1D4A126842F0C0
:1001600010021A601B4B1B4A126822F002021A602E
:10017000184B00221A60184B0A221A60174B0022F3
:100180001A60164B154A126842F4A0621A60134BAB
:10019000124A126842F010021A60104B0F4A12689D
:1001A00042F007021A600B4B0A4A126842F0020240
:1001B0001A600C37BD465DF8047B704708E10F40BC
:1001C000204400400C4500401C45004000450040D4
:1001D00004E10F4004800040108000400080004097
:1001E00080B485B000AF0346FB710023FB60FB7950
:1001F000FA681343FB60044BFA681A601437BD4673
:100200005DF8047B704700BF0880004080B500AFF8
:1002100000F028F900F0EAF900F096F9FFF770FF16
:10022000CC20FFF7DDFFCC20FFF7DAFFCC20FFF773
:10023000D7FFCC20FFF7D4FFCC20FFF7D1FF00BFC2
:10024000084B1B889BB2002BFAD0064B1B889BB235
:100250009BB2013B9AB2034B1A8000F047F800BFF3
:10026000EDE700BF1000002080B400AF134B134A2D
:10027000126842F002021A60104B104A126842F0F3
:1002800008021A600E4B0E4A126842F01C021A60F5
:100290000C4B0C4A126842F01C021A600A4B0A4AC4
:1002A000126822F03C021A60084B084A126842F0B9
:1002B0003C021A60BD465DF8047B704708E10F40C0
:1002C000005400401C550040007400401C75004064
:1002D00080B400AF044B044A126822F03C021A605A
:1002E000BD465DF8047B70471C75004080B586B044
:1002F00000AFFFF7B9FF3C4A07F1080310685168E7
:10030000926807C3394A3B1D1188927819809A7008
:10031000374A3B46106818600023FB750023BB7505
:100320004BE0344B334A126822F01C021A60314B06
:10033000304A1168BA7D07F11800024412F8142CF3
:100340000A431A6000237B7531E02B4B1A687B7DD2
:1003500007F118010B4413F8183C1340002B1BD075
:10036000B97D7B7D254A89000B4413441B78002B03
:1003700009D1BA7D7B7D920007F118000244134435
:10038000103B1B78FB75B97D7B7D1C4A89000B44B3
:10039000134401221A7007E0B97D7B7D174A89005A
:1003A0000B44134400221A707B7D01337B757B7DE7
:1003B000032BCAD9BB7D0133BB75BB7D022BB0D9E2
:1003C0000C4B0C4A126822F01C021A60FB7D002BB9
:1003D00003D0FB7D1846FFF703FFFFF779FFFB7D96
:1003E00018461837BD4680BDFC0500000806000011
:1003F0000C060000FC530040FC7300400400002089
:1004000080B582B000AF104B7B60104B3B6007E0C3
:100410003B681A1D3A607A68111D796012681A608B
:100420003A680B4B9A42F3D30A480B494FF000024B
:100430008842B8BF40F8042BFFF6FAAFFFF7E6FE9C
:100440000837BD4680BD00BF100600000000002038
:1004500000000020000000201400002080B400AF45
:10046000FEE700BF80B483B000AF344B334A12685C
:1004700042F400621A60314B304A126822F4800262
:100480001A602E4B2D4A126842F001021A602C4B62
:100490006FF040021A60294B284A126822F47072E9
:1004A0001A60264B254A126842F460721A60234B88
:1004B000224A126822F030021A60204B1F4A12684A
:1004C0001A601E4B1D4A126822F400521A601D4B1E
:1004D0007B6002E07B68013B7B607B68002BF9D18D
:1004E000164B164A126822F0F0621A60134B134A38
:1004F000126842F0C0721A60104B104A126842F43F
:1005000080021A6000BF0E4B1B6803F04003002BF3
:10051000F9D00A4B094A126822F400621A60094BAA
:100520007B6002E07B68013B7B607B68002BF9D13C
:100530000C37BD465DF8047B704700BF60E00F409C
:1005400050E00F40400D030080B400AF194B194A32
:10055000126822F001021A60174B184A1A60184BF1
:10056000164A1A60174B174A126842F000721A6056
:10057000154B154A126822F07F421A60124B124A3C
:10058000126842F0FC421A600A4B0A4A126842F0B2
:1005900004021A60074B074A126842F002021A600E
:1005A000044B044A126842F001021A60BD465DF82D
:1005B000047B704710E000E018E000E090D00300FA
:1005C00014E000E004ED00E020ED00E080B400AFB6
:1005D000054B1B889BB29BB201339AB2024B1A8027
:1005E000BD465DF8047B70471000002080B400AF6A
:1005F00062B6BD465DF8047B704700BF3134372AD0
:1006000032353830333639230408100020100804FE
:00000001FF
